{
  "address": "0x9E5153EF0763AE324a3AF572Eb80Bc970aA01d24",
  "abi": [
    {
      "inputs": [
        {
          "internalType": "contract IAIOracle",
          "name": "_aiOracle",
          "type": "address"
        }
      ],
      "stateMutability": "nonpayable",
      "type": "constructor"
    },
    {
      "inputs": [
        {
          "internalType": "address",
          "name": "owner",
          "type": "address"
        }
      ],
      "name": "OwnableInvalidOwner",
      "type": "error"
    },
    {
      "inputs": [
        {
          "internalType": "address",
          "name": "account",
          "type": "address"
        }
      ],
      "name": "OwnableUnauthorizedAccount",
      "type": "error"
    },
    {
      "inputs": [],
      "name": "ReentrancyGuardReentrantCall",
      "type": "error"
    },
    {
      "inputs": [
        {
          "internalType": "contract IAIOracle",
          "name": "expected",
          "type": "address"
        },
        {
          "internalType": "contract IAIOracle",
          "name": "found",
          "type": "address"
        }
      ],
      "name": "UnauthorizedCallbackSource",
      "type": "error"
    },
    {
      "anonymous": false,
      "inputs": [
        {
          "indexed": false,
          "internalType": "address",
          "name": "updater",
          "type": "address"
        },
        {
          "indexed": false,
          "internalType": "uint256",
          "name": "timestamp",
          "type": "uint256"
        }
      ],
      "name": "ConstitutionUpdated",
      "type": "event"
    },
    {
      "anonymous": false,
      "inputs": [
        {
          "indexed": false,
          "internalType": "uint256",
          "name": "modelId",
          "type": "uint256"
        },
        {
          "indexed": false,
          "internalType": "uint64",
          "name": "gasLimit",
          "type": "uint64"
        }
      ],
      "name": "ModelSettingsUpdated",
      "type": "event"
    },
    {
      "anonymous": false,
      "inputs": [
        {
          "indexed": true,
          "internalType": "address",
          "name": "previousOwner",
          "type": "address"
        },
        {
          "indexed": true,
          "internalType": "address",
          "name": "newOwner",
          "type": "address"
        }
      ],
      "name": "OwnershipTransferred",
      "type": "event"
    },
    {
      "anonymous": false,
      "inputs": [
        {
          "indexed": true,
          "internalType": "uint256",
          "name": "requestId",
          "type": "uint256"
        },
        {
          "indexed": true,
          "internalType": "address",
          "name": "proposer",
          "type": "address"
        },
        {
          "indexed": false,
          "internalType": "string",
          "name": "proposal",
          "type": "string"
        },
        {
          "indexed": false,
          "internalType": "string",
          "name": "result",
          "type": "string"
        }
      ],
      "name": "ProposalEvaluated",
      "type": "event"
    },
    {
      "anonymous": false,
      "inputs": [
        {
          "indexed": true,
          "internalType": "uint256",
          "name": "requestId",
          "type": "uint256"
        },
        {
          "indexed": true,
          "internalType": "address",
          "name": "proposer",
          "type": "address"
        },
        {
          "indexed": false,
          "internalType": "string",
          "name": "proposal",
          "type": "string"
        }
      ],
      "name": "ProposalSubmitted",
      "type": "event"
    },
    {
      "inputs": [],
      "name": "aiOracle",
      "outputs": [
        {
          "internalType": "contract IAIOracle",
          "name": "",
          "type": "address"
        }
      ],
      "stateMutability": "view",
      "type": "function"
    },
    {
      "inputs": [
        {
          "internalType": "uint256",
          "name": "requestId",
          "type": "uint256"
        },
        {
          "internalType": "bytes",
          "name": "output",
          "type": "bytes"
        },
        {
          "internalType": "bytes",
          "name": "callbackData",
          "type": "bytes"
        }
      ],
      "name": "aiOracleCallback",
      "outputs": [],
      "stateMutability": "nonpayable",
      "type": "function"
    },
    {
      "inputs": [],
      "name": "callbackGasLimit",
      "outputs": [
        {
          "internalType": "uint64",
          "name": "",
          "type": "uint64"
        }
      ],
      "stateMutability": "view",
      "type": "function"
    },
    {
      "inputs": [],
      "name": "clearConstitution",
      "outputs": [],
      "stateMutability": "nonpayable",
      "type": "function"
    },
    {
      "inputs": [],
      "name": "constitution",
      "outputs": [
        {
          "internalType": "string",
          "name": "",
          "type": "string"
        }
      ],
      "stateMutability": "view",
      "type": "function"
    },
    {
      "inputs": [],
      "name": "constitutionSet",
      "outputs": [
        {
          "internalType": "bool",
          "name": "",
          "type": "bool"
        }
      ],
      "stateMutability": "view",
      "type": "function"
    },
    {
      "inputs": [],
      "name": "estimateFee",
      "outputs": [
        {
          "internalType": "uint256",
          "name": "",
          "type": "uint256"
        }
      ],
      "stateMutability": "view",
      "type": "function"
    },
    {
      "inputs": [
        {
          "internalType": "string",
          "name": "proposal",
          "type": "string"
        }
      ],
      "name": "evaluateProposal",
      "outputs": [
        {
          "internalType": "uint256",
          "name": "",
          "type": "uint256"
        }
      ],
      "stateMutability": "payable",
      "type": "function"
    },
    {
      "inputs": [],
      "name": "evaluationModelId",
      "outputs": [
        {
          "internalType": "uint256",
          "name": "",
          "type": "uint256"
        }
      ],
      "stateMutability": "view",
      "type": "function"
    },
    {
      "inputs": [
        {
          "internalType": "uint256",
          "name": "requestId",
          "type": "uint256"
        }
      ],
      "name": "getProposalResult",
      "outputs": [
        {
          "internalType": "string",
          "name": "proposal",
          "type": "string"
        },
        {
          "internalType": "string",
          "name": "result",
          "type": "string"
        },
        {
          "internalType": "bool",
          "name": "completed",
          "type": "bool"
        }
      ],
      "stateMutability": "view",
      "type": "function"
    },
    {
      "inputs": [
        {
          "internalType": "uint256",
          "name": "requestId",
          "type": "uint256"
        }
      ],
      "name": "isFinalized",
      "outputs": [
        {
          "internalType": "bool",
          "name": "",
          "type": "bool"
        }
      ],
      "stateMutability": "view",
      "type": "function"
    },
    {
      "inputs": [],
      "name": "owner",
      "outputs": [
        {
          "internalType": "address",
          "name": "",
          "type": "address"
        }
      ],
      "stateMutability": "view",
      "type": "function"
    },
    {
      "inputs": [
        {
          "internalType": "uint256",
          "name": "",
          "type": "uint256"
        }
      ],
      "name": "proposals",
      "outputs": [
        {
          "internalType": "address",
          "name": "proposer",
          "type": "address"
        },
        {
          "internalType": "string",
          "name": "proposal",
          "type": "string"
        },
        {
          "internalType": "string",
          "name": "result",
          "type": "string"
        },
        {
          "internalType": "bool",
          "name": "completed",
          "type": "bool"
        }
      ],
      "stateMutability": "view",
      "type": "function"
    },
    {
      "inputs": [],
      "name": "renounceOwnership",
      "outputs": [],
      "stateMutability": "nonpayable",
      "type": "function"
    },
    {
      "inputs": [
        {
          "internalType": "string",
          "name": "newConstitution",
          "type": "string"
        }
      ],
      "name": "setConstitution",
      "outputs": [],
      "stateMutability": "nonpayable",
      "type": "function"
    },
    {
      "inputs": [
        {
          "internalType": "address",
          "name": "newOwner",
          "type": "address"
        }
      ],
      "name": "transferOwnership",
      "outputs": [],
      "stateMutability": "nonpayable",
      "type": "function"
    },
    {
      "inputs": [
        {
          "internalType": "uint256",
          "name": "modelId",
          "type": "uint256"
        },
        {
          "internalType": "uint64",
          "name": "gasLimit",
          "type": "uint64"
        }
      ],
      "name": "updateModelSettings",
      "outputs": [],
      "stateMutability": "nonpayable",
      "type": "function"
    }
  ],
  "transactionHash": "0x40db9b2c7c0265e5115cfa09df2b98b9c450493fa3863133060e3f5786167148",
  "args": [
    "0x0A0f4321214BB6C7811dD8a71cF587bdaF03f0A0"
  ],
  "numDeployments": 2,
  "solcInputHash": "8c307a63b41c25634436dd44025abf09",
  "bytecode": "0x60a0604052600b600455600580546001600160401b031916624c4b4017905534801561002a57600080fd5b50604051611843380380611843833981016040819052610049916100e0565b6001600160a01b038116608052338061007c57604051631e4fbdf760e01b81526000600482015260240160405180910390fd5b61008581610090565b505060018055610110565b600080546001600160a01b038381166001600160a01b0319831681178455604051919092169283917f8be0079c531659141344cd1fd0a4f28419497f9722a3daafe3b4186f6b6457e09190a35050565b6000602082840312156100f257600080fd5b81516001600160a01b038116811461010957600080fd5b9392505050565b6080516116f561014e600039600081816101c9015281816105f9015281816108710152818161098e01528181610a100152610a4d01526116f56000f3fe6080604052600436106100fe5760003560e01c8063715018a611610095578063c000139f11610064578063c000139f146102c6578063c7300002146102e6578063c96b9e2914610300578063f2fde38b14610322578063f91f88f71461034257600080fd5b8063715018a61461025e5780637f18dc85146102735780638da5cb5b14610288578063b0347814146102a657600080fd5b806331b221cd116100d157806331b221cd146101b757806333727c4d14610203578063399f8b0d146102335780635274eb7d1461024957600080fd5b8063013cf08b14610103578063166bb2601461013c57806324f746971461015d5780632590bcda14610195575b600080fd5b34801561010f57600080fd5b5061012361011e366004610f2e565b610371565b6040516101339493929190610f8d565b60405180910390f35b61014f61014a36600461101f565b6104b7565b604051908152602001610133565b34801561016957600080fd5b5060055461017d906001600160401b031681565b6040516001600160401b039091168152602001610133565b3480156101a157600080fd5b506101b56101b036600461101f565b6107ab565b005b3480156101c357600080fd5b506101eb7f000000000000000000000000000000000000000000000000000000000000000081565b6040516001600160a01b039091168152602001610133565b34801561020f57600080fd5b5061022361021e366004610f2e565b610858565b6040519015158152602001610133565b34801561023f57600080fd5b5061014f60045481565b34801561025557600080fd5b506101b56108e4565b34801561026a57600080fd5b506101b561094d565b34801561027f57600080fd5b5061014f610961565b34801561029457600080fd5b506000546001600160a01b03166101eb565b3480156102b257600080fd5b506101b56102c1366004611060565b610a05565b3480156102d257600080fd5b506101b56102e13660046110d9565b610b5a565b3480156102f257600080fd5b506003546102239060ff1681565b34801561030c57600080fd5b50610315610c16565b6040516101339190611115565b34801561032e57600080fd5b506101b561033d36600461112f565b610ca4565b34801561034e57600080fd5b5061036261035d366004610f2e565b610ce2565b60405161013393929190611158565b600660205260009081526040902080546001820180546001600160a01b03909216929161039d90611190565b80601f01602080910402602001604051908101604052809291908181526020018280546103c990611190565b80156104165780601f106103eb57610100808354040283529160200191610416565b820191906000526020600020905b8154815290600101906020018083116103f957829003601f168201915b50505050509080600201805461042b90611190565b80601f016020809104026020016040519081016040528092919081815260200182805461045790611190565b80156104a45780601f10610479576101008083540402835291602001916104a4565b820191906000526020600020905b81548152906001019060200180831161048757829003601f168201915b5050506003909301549192505060ff1684565b60006104c1610e87565b60035460ff1661050f5760405162461bcd60e51b815260206004820152601460248201527310dbdb9cdd1a5d1d5d1a5bdb881b9bdd081cd95d60621b60448201526064015b60405180910390fd5b8161055c5760405162461bcd60e51b815260206004820152601860248201527f50726f706f73616c2063616e6e6f7420626520656d70747900000000000000006044820152606401610506565b6000610566610961565b9050803410156105af5760405162461bcd60e51b8152602060048201526014602482015273125b9cdd59999a58da595b9d081c185e5b595b9d60621b6044820152606401610506565b6000600285856040516020016105c7939291906111d9565b60408051601f198184030181529082905260048054600554632dca9c0360e11b85529294506000936001600160a01b037f00000000000000000000000000000000000000000000000000000000000000001693635b95380693349361063e939092899230926001600160401b039092169101611374565b60206040518083038185885af115801561065c573d6000803e3d6000fd5b50505050506040513d601f19601f8201168201806040525081019061068191906113c6565b90506040518060800160405280336001600160a01b0316815260200187878080601f0160208091040260200160405190810160405280939291908181526020018383808284376000920182905250938552505060408051602080820183528482528086019190915293810183905285835260068452909120835181546001600160a01b0319166001600160a01b03909116178155918301516001830191506107299082611444565b506040820151600282019061073e9082611444565b50606091909101516003909101805460ff1916911515919091179055604051339082907fba63161e1c7e096aaf63cb63b137eeea26b870df0007c6e2ad029bae55d6517990610790908a908a90611503565b60405180910390a3925050506107a560018055565b92915050565b6107b3610eb1565b806108005760405162461bcd60e51b815260206004820152601c60248201527f436f6e737469747574696f6e2063616e6e6f7420626520656d707479000000006044820152606401610506565b600261080d828483611532565b506003805460ff19166001179055604080513381524260208201527f1ce6266e84e3db1bdb4eb7feee451acf122f97a78db5135788d11d3e31c1a96a91015b60405180910390a15050565b6040516333727c4d60e01b8152600481018290526000907f00000000000000000000000000000000000000000000000000000000000000006001600160a01b0316906333727c4d90602401602060405180830381865afa1580156108c0573d6000803e3d6000fd5b505050506040513d601f19601f820116820180604052508101906107a591906115f2565b6108ec610eb1565b6040805160208101909152600081526002906109089082611444565b506003805460ff19169055604080513381524260208201527f1ce6266e84e3db1bdb4eb7feee451acf122f97a78db5135788d11d3e31c1a96a910160405180910390a1565b610955610eb1565b61095f6000610ede565b565b60048054600554604051620e1d8d60e41b8152928301919091526001600160401b031660248201526000907f00000000000000000000000000000000000000000000000000000000000000006001600160a01b03169062e1d8d090604401602060405180830381865afa1580156109dc573d6000803e3d6000fd5b505050506040513d601f19601f82011682018060405250810190610a0091906113c6565b905090565b336001600160a01b037f0000000000000000000000000000000000000000000000000000000000000000168114610a825760405163432e033760e11b81526001600160a01b037f00000000000000000000000000000000000000000000000000000000000000008116600483015282166024820152604401610506565b600086815260066020526040902080546001600160a01b0316610ae05760405162461bcd60e51b815260206004820152601660248201527514995c5d595cdd08191bd95cc81b9bdd08195e1a5cdd60521b6044820152606401610506565b60028101610aef868883611532565b5060038101805460ff1916600190811790915581546040516001600160a01b039091169189917fa2f4a081081ceb6c7816bf024acdf196591c135b47b36deb57fa07fdb8ca24d791610b4991908601906002870190611691565b60405180910390a350505050505050565b610b62610eb1565b6000816001600160401b031611610bbb5760405162461bcd60e51b815260206004820152601a60248201527f476173206c696d6974206d75737420626520706f7369746976650000000000006044820152606401610506565b60048290556005805467ffffffffffffffff19166001600160401b0383169081179091556040805184815260208101929092527f0e2dae0773336fa4a2b0cc27edf1dc0596a8960bb77fa4f8d41d1989eee9deff910161084c565b60028054610c2390611190565b80601f0160208091040260200160405190810160405280929190818152602001828054610c4f90611190565b8015610c9c5780601f10610c7157610100808354040283529160200191610c9c565b820191906000526020600020905b815481529060010190602001808311610c7f57829003601f168201915b505050505081565b610cac610eb1565b6001600160a01b038116610cd657604051631e4fbdf760e01b815260006004820152602401610506565b610cdf81610ede565b50565b60008181526006602052604081208054606092839290916001600160a01b0316610d475760405162461bcd60e51b815260206004820152601660248201527514995c5d595cdd08191bd95cc81b9bdd08195e1a5cdd60521b6044820152606401610506565b80600101816002018260030160009054906101000a900460ff16828054610d6d90611190565b80601f0160208091040260200160405190810160405280929190818152602001828054610d9990611190565b8015610de65780601f10610dbb57610100808354040283529160200191610de6565b820191906000526020600020905b815481529060010190602001808311610dc957829003601f168201915b50505050509250818054610df990611190565b80601f0160208091040260200160405190810160405280929190818152602001828054610e2590611190565b8015610e725780601f10610e4757610100808354040283529160200191610e72565b820191906000526020600020905b815481529060010190602001808311610e5557829003601f168201915b50505050509150935093509350509193909250565b600260015403610eaa57604051633ee5aeb560e01b815260040160405180910390fd5b6002600155565b6000546001600160a01b0316331461095f5760405163118cdaa760e01b8152336004820152602401610506565b600080546001600160a01b038381166001600160a01b0319831681178455604051919092169283917f8be0079c531659141344cd1fd0a4f28419497f9722a3daafe3b4186f6b6457e09190a35050565b600060208284031215610f4057600080fd5b5035919050565b6000815180845260005b81811015610f6d57602081850181015186830182015201610f51565b506000602082860101526020601f19601f83011685010191505092915050565b6001600160a01b0385168152608060208201819052600090610fb190830186610f47565b8281036040840152610fc38186610f47565b915050821515606083015295945050505050565b60008083601f840112610fe957600080fd5b5081356001600160401b0381111561100057600080fd5b60208301915083602082850101111561101857600080fd5b9250929050565b6000806020838503121561103257600080fd5b82356001600160401b0381111561104857600080fd5b61105485828601610fd7565b90969095509350505050565b60008060008060006060868803121561107857600080fd5b8535945060208601356001600160401b038082111561109657600080fd5b6110a289838a01610fd7565b909650945060408801359150808211156110bb57600080fd5b506110c888828901610fd7565b969995985093965092949392505050565b600080604083850312156110ec57600080fd5b8235915060208301356001600160401b038116811461110a57600080fd5b809150509250929050565b6020815260006111286020830184610f47565b9392505050565b60006020828403121561114157600080fd5b81356001600160a01b038116811461112857600080fd5b60608152600061116b6060830186610f47565b828103602084015261117d8186610f47565b9150508215156040830152949350505050565b600181811c908216806111a457607f821691505b6020821081036111c457634e487b7160e01b600052602260045260246000fd5b50919050565b81818437506000910190815290565b7f596f7520617265206120636f6e737469747574696f6e616c206576616c7561748152600060207f6f722e204576616c756174652074686520666f6c6c6f77696e672070726f706f818401527f73616c207374726963746c79206163636f7264696e6720746f2074686973206360408401527f6f6e737469747574696f6e20616e6420726573706f6e642077697468204f4e4c60608401527f592027617070726f76656427206f7220276465636c696e65642720616e64206e60808401527f6f7468696e6720656c73652e0a0a434f4e535449545554494f4e3a0a0000000060a084015260bc600087546112cc81611190565b600182811680156112e457600181146112fd5761132d565b60ff19841689870152821515830289018601945061132d565b8b6000528660002060005b848110156113235781548b8201890152908301908801611308565b505085838a010194505b50505050611368611361827f0a0a50524f504f53414c20544f204556414c554154453a0a0000000000000000815260180190565b87896111ca565b98975050505050505050565b84815260a06020820152600061138d60a0830186610f47565b6001600160a01b03949094166040830152506001600160401b039190911660608201528082036080909101526000815260200192915050565b6000602082840312156113d857600080fd5b5051919050565b634e487b7160e01b600052604160045260246000fd5b601f82111561143f57600081815260208120601f850160051c8101602086101561141c5750805b601f850160051c820191505b8181101561143b57828155600101611428565b5050505b505050565b81516001600160401b0381111561145d5761145d6113df565b6114718161146b8454611190565b846113f5565b602080601f8311600181146114a6576000841561148e5750858301515b600019600386901b1c1916600185901b17855561143b565b600085815260208120601f198616915b828110156114d5578886015182559484019460019091019084016114b6565b50858210156114f35787850151600019600388901b60f8161c191681555b5050505050600190811b01905550565b60208152816020820152818360408301376000818301604090810191909152601f909201601f19160101919050565b6001600160401b03831115611549576115496113df565b61155d836115578354611190565b836113f5565b6000601f84116001811461159157600085156115795750838201355b600019600387901b1c1916600186901b1783556115eb565b600083815260209020601f19861690835b828110156115c257868501358255602094850194600190920191016115a2565b50868210156115df5760001960f88860031b161c19848701351681555b505060018560011b0183555b5050505050565b60006020828403121561160457600080fd5b8151801515811461112857600080fd5b6000815461162181611190565b80855260206001838116801561163e576001811461165857611686565b60ff1985168884015283151560051b880183019550611686565b866000528260002060005b8581101561167e5781548a8201860152908301908401611663565b890184019650505b505050505092915050565b6040815260006116a46040830185611614565b82810360208401526116b68185611614565b9594505050505056fea2646970667358221220e706ee0abb05b6b9d4920e0f29e4176f8bc8a555472a040c11296edc69a0b22464736f6c63430008140033",
  "devdoc": {
    "errors": {
      "OwnableInvalidOwner(address)": [
        {
          "details": "The owner is not a valid owner account. (eg. `address(0)`)"
        }
      ],
      "OwnableUnauthorizedAccount(address)": [
        {
          "details": "The caller account is not authorized to perform an operation."
        }
      ],
      "ReentrancyGuardReentrantCall()": [
        {
          "details": "Unauthorized reentrant call."
        }
      ]
    },
    "kind": "dev",
    "methods": {
      "owner()": {
        "details": "Returns the address of the current owner."
      },
      "renounceOwnership()": {
        "details": "Leaves the contract without owner. It will not be possible to call `onlyOwner` functions. Can only be called by the current owner. NOTE: Renouncing ownership will leave the contract without an owner, thereby disabling any functionality that is only available to the owner."
      },
      "transferOwnership(address)": {
        "details": "Transfers ownership of the contract to a new account (`newOwner`). Can only be called by the current owner."
      }
    },
    "version": 1
  },
  "userdoc": {
    "kind": "user",
    "methods": {
      "aiOracleCallback(uint256,bytes,bytes)": {
        "notice": "OAO callback function that processes the AI response"
      },
      "clearConstitution()": {
        "notice": "Clear the constitution"
      },
      "constructor": {
        "notice": "Initialize the contract with the AI Oracle address"
      },
      "estimateFee()": {
        "notice": "Get the fee estimate for proposal evaluation"
      },
      "evaluateProposal(string)": {
        "notice": "Submit a proposal to be evaluated against the constitution"
      },
      "getProposalResult(uint256)": {
        "notice": "Check the result of a proposal evaluation"
      },
      "setConstitution(string)": {
        "notice": "Set or update the constitution"
      },
      "updateModelSettings(uint256,uint64)": {
        "notice": "Update model settings"
      }
    },
    "notice": "Contract that stores a constitution and evaluates proposals against it using AI",
    "version": 1
  },
  "storageLayout": {
    "storage": [
      {
        "astId": 8,
        "contract": "contracts/AimEvaluator.sol:AimEvaluator",
        "label": "_owner",
        "offset": 0,
        "slot": "0",
        "type": "t_address"
      },
      {
        "astId": 188,
        "contract": "contracts/AimEvaluator.sol:AimEvaluator",
        "label": "_status",
        "offset": 0,
        "slot": "1",
        "type": "t_uint256"
      },
      {
        "astId": 1720,
        "contract": "contracts/AimEvaluator.sol:AimEvaluator",
        "label": "constitution",
        "offset": 0,
        "slot": "2",
        "type": "t_string_storage"
      },
      {
        "astId": 1722,
        "contract": "contracts/AimEvaluator.sol:AimEvaluator",
        "label": "constitutionSet",
        "offset": 0,
        "slot": "3",
        "type": "t_bool"
      },
      {
        "astId": 1725,
        "contract": "contracts/AimEvaluator.sol:AimEvaluator",
        "label": "evaluationModelId",
        "offset": 0,
        "slot": "4",
        "type": "t_uint256"
      },
      {
        "astId": 1728,
        "contract": "contracts/AimEvaluator.sol:AimEvaluator",
        "label": "callbackGasLimit",
        "offset": 0,
        "slot": "5",
        "type": "t_uint64"
      },
      {
        "astId": 1733,
        "contract": "contracts/AimEvaluator.sol:AimEvaluator",
        "label": "proposals",
        "offset": 0,
        "slot": "6",
        "type": "t_mapping(t_uint256,t_struct(ProposalRequest)1718_storage)"
      }
    ],
    "types": {
      "t_address": {
        "encoding": "inplace",
        "label": "address",
        "numberOfBytes": "20"
      },
      "t_bool": {
        "encoding": "inplace",
        "label": "bool",
        "numberOfBytes": "1"
      },
      "t_mapping(t_uint256,t_struct(ProposalRequest)1718_storage)": {
        "encoding": "mapping",
        "key": "t_uint256",
        "label": "mapping(uint256 => struct AimEvaluator.ProposalRequest)",
        "numberOfBytes": "32",
        "value": "t_struct(ProposalRequest)1718_storage"
      },
      "t_string_storage": {
        "encoding": "bytes",
        "label": "string",
        "numberOfBytes": "32"
      },
      "t_struct(ProposalRequest)1718_storage": {
        "encoding": "inplace",
        "label": "struct AimEvaluator.ProposalRequest",
        "members": [
          {
            "astId": 1711,
            "contract": "contracts/AimEvaluator.sol:AimEvaluator",
            "label": "proposer",
            "offset": 0,
            "slot": "0",
            "type": "t_address"
          },
          {
            "astId": 1713,
            "contract": "contracts/AimEvaluator.sol:AimEvaluator",
            "label": "proposal",
            "offset": 0,
            "slot": "1",
            "type": "t_string_storage"
          },
          {
            "astId": 1715,
            "contract": "contracts/AimEvaluator.sol:AimEvaluator",
            "label": "result",
            "offset": 0,
            "slot": "2",
            "type": "t_string_storage"
          },
          {
            "astId": 1717,
            "contract": "contracts/AimEvaluator.sol:AimEvaluator",
            "label": "completed",
            "offset": 0,
            "slot": "3",
            "type": "t_bool"
          }
        ],
        "numberOfBytes": "128"
      },
      "t_uint256": {
        "encoding": "inplace",
        "label": "uint256",
        "numberOfBytes": "32"
      },
      "t_uint64": {
        "encoding": "inplace",
        "label": "uint64",
        "numberOfBytes": "8"
      }
    }
  }
}